{
  "_format": "hh-sol-artifact-1",
  "contractName": "MedicalRecord",
  "sourceName": "contracts/MyContract.sol",
  "abi": [
    {
      "anonymous": false,
      "inputs": [
        {
          "indexed": false,
          "internalType": "uint256",
          "name": "recordId",
          "type": "uint256"
        },
        {
          "indexed": false,
          "internalType": "uint256",
          "name": "timestamp",
          "type": "uint256"
        },
        {
          "indexed": false,
          "internalType": "string",
          "name": "name",
          "type": "string"
        },
        {
          "indexed": false,
          "internalType": "uint256",
          "name": "age",
          "type": "uint256"
        },
        {
          "indexed": false,
          "internalType": "string",
          "name": "gender",
          "type": "string"
        },
        {
          "indexed": false,
          "internalType": "string",
          "name": "bloodType",
          "type": "string"
        },
        {
          "indexed": false,
          "internalType": "string",
          "name": "allergies",
          "type": "string"
        },
        {
          "indexed": false,
          "internalType": "string",
          "name": "diagnosis",
          "type": "string"
        },
        {
          "indexed": false,
          "internalType": "string",
          "name": "treatment",
          "type": "string"
        }
      ],
      "name": "MedicalRecord__AddRecord",
      "type": "event"
    },
    {
      "anonymous": false,
      "inputs": [
        {
          "indexed": false,
          "internalType": "uint256",
          "name": "recordId",
          "type": "uint256"
        },
        {
          "indexed": false,
          "internalType": "uint256",
          "name": "timestamp",
          "type": "uint256"
        },
        {
          "indexed": false,
          "internalType": "string",
          "name": "name",
          "type": "string"
        },
        {
          "indexed": false,
          "internalType": "uint256",
          "name": "age",
          "type": "uint256"
        },
        {
          "indexed": false,
          "internalType": "string",
          "name": "gender",
          "type": "string"
        },
        {
          "indexed": false,
          "internalType": "string",
          "name": "bloodType",
          "type": "string"
        },
        {
          "indexed": false,
          "internalType": "string",
          "name": "allergies",
          "type": "string"
        },
        {
          "indexed": false,
          "internalType": "string",
          "name": "diagnosis",
          "type": "string"
        },
        {
          "indexed": false,
          "internalType": "string",
          "name": "treatment",
          "type": "string"
        }
      ],
      "name": "MedicalRecord__DeleteRecord",
      "type": "event"
    },
    {
      "inputs": [
        {
          "internalType": "string",
          "name": "_name",
          "type": "string"
        },
        {
          "internalType": "uint256",
          "name": "_age",
          "type": "uint256"
        },
        {
          "internalType": "string",
          "name": "_gender",
          "type": "string"
        },
        {
          "internalType": "string",
          "name": "_bloodType",
          "type": "string"
        },
        {
          "internalType": "string",
          "name": "_allergies",
          "type": "string"
        },
        {
          "internalType": "string",
          "name": "_diagnosis",
          "type": "string"
        },
        {
          "internalType": "string",
          "name": "_treatment",
          "type": "string"
        }
      ],
      "name": "addRecord",
      "outputs": [],
      "stateMutability": "nonpayable",
      "type": "function"
    },
    {
      "inputs": [
        {
          "internalType": "uint256",
          "name": "_recordId",
          "type": "uint256"
        }
      ],
      "name": "deleteRecord",
      "outputs": [],
      "stateMutability": "nonpayable",
      "type": "function"
    },
    {
      "inputs": [
        {
          "internalType": "uint256",
          "name": "_recordId",
          "type": "uint256"
        }
      ],
      "name": "getAge",
      "outputs": [
        {
          "internalType": "uint256",
          "name": "",
          "type": "uint256"
        }
      ],
      "stateMutability": "view",
      "type": "function"
    },
    {
      "inputs": [
        {
          "internalType": "uint256",
          "name": "_recordId",
          "type": "uint256"
        }
      ],
      "name": "getAllergies",
      "outputs": [
        {
          "internalType": "string",
          "name": "",
          "type": "string"
        }
      ],
      "stateMutability": "view",
      "type": "function"
    },
    {
      "inputs": [
        {
          "internalType": "uint256",
          "name": "_recordId",
          "type": "uint256"
        }
      ],
      "name": "getBloodType",
      "outputs": [
        {
          "internalType": "string",
          "name": "",
          "type": "string"
        }
      ],
      "stateMutability": "view",
      "type": "function"
    },
    {
      "inputs": [
        {
          "internalType": "uint256",
          "name": "_recordId",
          "type": "uint256"
        }
      ],
      "name": "getDeleted",
      "outputs": [
        {
          "internalType": "bool",
          "name": "",
          "type": "bool"
        }
      ],
      "stateMutability": "view",
      "type": "function"
    },
    {
      "inputs": [
        {
          "internalType": "uint256",
          "name": "_recordId",
          "type": "uint256"
        }
      ],
      "name": "getDiagnosis",
      "outputs": [
        {
          "internalType": "string",
          "name": "",
          "type": "string"
        }
      ],
      "stateMutability": "view",
      "type": "function"
    },
    {
      "inputs": [
        {
          "internalType": "uint256",
          "name": "_recordId",
          "type": "uint256"
        }
      ],
      "name": "getGender",
      "outputs": [
        {
          "internalType": "string",
          "name": "",
          "type": "string"
        }
      ],
      "stateMutability": "view",
      "type": "function"
    },
    {
      "inputs": [
        {
          "internalType": "uint256",
          "name": "_recordId",
          "type": "uint256"
        }
      ],
      "name": "getName",
      "outputs": [
        {
          "internalType": "string",
          "name": "",
          "type": "string"
        }
      ],
      "stateMutability": "view",
      "type": "function"
    },
    {
      "inputs": [
        {
          "internalType": "uint256",
          "name": "_recordId",
          "type": "uint256"
        }
      ],
      "name": "getRecord",
      "outputs": [
        {
          "internalType": "uint256",
          "name": "",
          "type": "uint256"
        },
        {
          "internalType": "string",
          "name": "",
          "type": "string"
        },
        {
          "internalType": "uint256",
          "name": "",
          "type": "uint256"
        },
        {
          "internalType": "string",
          "name": "",
          "type": "string"
        },
        {
          "internalType": "string",
          "name": "",
          "type": "string"
        },
        {
          "internalType": "string",
          "name": "",
          "type": "string"
        },
        {
          "internalType": "string",
          "name": "",
          "type": "string"
        },
        {
          "internalType": "string",
          "name": "",
          "type": "string"
        }
      ],
      "stateMutability": "view",
      "type": "function"
    },
    {
      "inputs": [],
      "name": "getRecordId",
      "outputs": [
        {
          "internalType": "uint256",
          "name": "",
          "type": "uint256"
        }
      ],
      "stateMutability": "view",
      "type": "function"
    },
    {
      "inputs": [
        {
          "internalType": "uint256",
          "name": "_recordId",
          "type": "uint256"
        }
      ],
      "name": "getTimeStamp",
      "outputs": [
        {
          "internalType": "uint256",
          "name": "",
          "type": "uint256"
        }
      ],
      "stateMutability": "view",
      "type": "function"
    },
    {
      "inputs": [
        {
          "internalType": "uint256",
          "name": "_recordId",
          "type": "uint256"
        }
      ],
      "name": "getTreatment",
      "outputs": [
        {
          "internalType": "string",
          "name": "",
          "type": "string"
        }
      ],
      "stateMutability": "view",
      "type": "function"
    },
    {
      "inputs": [
        {
          "internalType": "uint256",
          "name": "",
          "type": "uint256"
        }
      ],
      "name": "isDeleted",
      "outputs": [
        {
          "internalType": "bool",
          "name": "",
          "type": "bool"
        }
      ],
      "stateMutability": "view",
      "type": "function"
    },
    {
      "inputs": [],
      "name": "recordId",
      "outputs": [
        {
          "internalType": "uint256",
          "name": "",
          "type": "uint256"
        }
      ],
      "stateMutability": "view",
      "type": "function"
    }
  ],
  "bytecode": "0x608060405234801561001057600080fd5b50611f39806100206000396000f3fe608060405234801561001057600080fd5b50600436106100f55760003560e01c806394182c3611610097578063b810793e11610066578063b810793e14610ad0578063e06d2eb514610b77578063f26c5f5f14610c1e578063f7dfe22b14610cc5576100f5565b806394182c361461098357806397f6c84c146109c757806399055dda14610a6e578063ab59694614610a8c576100f5565b806333c3f9a4116100d357806333c3f9a41461043b5780636747f391146107f35780636b8ff5741461083557806373c440db146108dc576100f5565b806303e9e609146100fa578063061f9811146103cb5780630e37008a146103f9575b600080fd5b6101266004803603602081101561011057600080fd5b8101908080359060200190929190505050610ce3565b6040518089815260200180602001888152602001806020018060200180602001806020018060200187810387528e818151815260200191508051906020019080838360005b8381101561018657808201518184015260208101905061016b565b50505050905090810190601f1680156101b35780820380516001836020036101000a031916815260200191505b5087810386528c818151815260200191508051906020019080838360005b838110156101ec5780820151818401526020810190506101d1565b50505050905090810190601f1680156102195780820380516001836020036101000a031916815260200191505b5087810385528b818151815260200191508051906020019080838360005b83811015610252578082015181840152602081019050610237565b50505050905090810190601f16801561027f5780820380516001836020036101000a031916815260200191505b5087810384528a818151815260200191508051906020019080838360005b838110156102b857808201518184015260208101905061029d565b50505050905090810190601f1680156102e55780820380516001836020036101000a031916815260200191505b50878103835289818151815260200191508051906020019080838360005b8381101561031e578082015181840152602081019050610303565b50505050905090810190601f16801561034b5780820380516001836020036101000a031916815260200191505b50878103825288818151815260200191508051906020019080838360005b83811015610384578082015181840152602081019050610369565b50505050905090810190601f1680156103b15780820380516001836020036101000a031916815260200191505b509e50505050505050505050505050505060405180910390f35b6103f7600480360360208110156103e157600080fd5b81019080803590602001909291905050506110ee565b005b6104256004803603602081101561040f57600080fd5b8101908080359060200190929190505050611566565b6040518082815260200191505060405180910390f35b6107f1600480360360e081101561045157600080fd5b810190808035906020019064010000000081111561046e57600080fd5b82018360208201111561048057600080fd5b803590602001918460018302840111640100000000831117156104a257600080fd5b91908080601f016020809104026020016040519081016040528093929190818152602001838380828437600081840152601f19601f820116905080830192505050505050509192919290803590602001909291908035906020019064010000000081111561050f57600080fd5b82018360208201111561052157600080fd5b8035906020019184600183028401116401000000008311171561054357600080fd5b91908080601f016020809104026020016040519081016040528093929190818152602001838380828437600081840152601f19601f820116905080830192505050505050509192919290803590602001906401000000008111156105a657600080fd5b8201836020820111156105b857600080fd5b803590602001918460018302840111640100000000831117156105da57600080fd5b91908080601f016020809104026020016040519081016040528093929190818152602001838380828437600081840152601f19601f8201169050808301925050505050505091929192908035906020019064010000000081111561063d57600080fd5b82018360208201111561064f57600080fd5b8035906020019184600183028401116401000000008311171561067157600080fd5b91908080601f016020809104026020016040519081016040528093929190818152602001838380828437600081840152601f19601f820116905080830192505050505050509192919290803590602001906401000000008111156106d457600080fd5b8201836020820111156106e657600080fd5b8035906020019184600183028401116401000000008311171561070857600080fd5b91908080601f016020809104026020016040519081016040528093929190818152602001838380828437600081840152601f19601f8201169050808301925050505050505091929192908035906020019064010000000081111561076b57600080fd5b82018360208201111561077d57600080fd5b8035906020019184600183028401116401000000008311171561079f57600080fd5b91908080601f016020809104026020016040519081016040528093929190818152602001838380828437600081840152601f19601f820116905080830192505050505050509192919290505050611586565b005b61081f6004803603602081101561080957600080fd5b810190808035906020019092919050505061199d565b6040518082815260200191505060405180910390f35b6108616004803603602081101561084b57600080fd5b81019080803590602001909291905050506119bd565b6040518080602001828103825283818151815260200191508051906020019080838360005b838110156108a1578082015181840152602081019050610886565b50505050905090810190601f1680156108ce5780820380516001836020036101000a031916815260200191505b509250505060405180910390f35b610908600480360360208110156108f257600080fd5b8101908080359060200190929190505050611a75565b6040518080602001828103825283818151815260200191508051906020019080838360005b8381101561094857808201518184015260208101905061092d565b50505050905090810190601f1680156109755780820380516001836020036101000a031916815260200191505b509250505060405180910390f35b6109af6004803603602081101561099957600080fd5b8101908080359060200190929190505050611b2d565b60405180821515815260200191505060405180910390f35b6109f3600480360360208110156109dd57600080fd5b8101908080359060200190929190505050611b4d565b6040518080602001828103825283818151815260200191508051906020019080838360005b83811015610a33578082015181840152602081019050610a18565b50505050905090810190601f168015610a605780820380516001836020036101000a031916815260200191505b509250505060405180910390f35b610a76611c05565b6040518082815260200191505060405180910390f35b610ab860048036036020811015610aa257600080fd5b8101908080359060200190929190505050611c0e565b60405180821515815260200191505060405180910390f35b610afc60048036036020811015610ae657600080fd5b8101908080359060200190929190505050611c38565b6040518080602001828103825283818151815260200191508051906020019080838360005b83811015610b3c578082015181840152602081019050610b21565b50505050905090810190601f168015610b695780820380516001836020036101000a031916815260200191505b509250505060405180910390f35b610ba360048036036020811015610b8d57600080fd5b8101908080359060200190929190505050611cf0565b6040518080602001828103825283818151815260200191508051906020019080838360005b83811015610be3578082015181840152602081019050610bc8565b50505050905090810190601f168015610c105780820380516001836020036101000a031916815260200191505b509250505060405180910390f35b610c4a60048036036020811015610c3457600080fd5b8101908080359060200190929190505050611da8565b6040518080602001828103825283818151815260200191508051906020019080838360005b83811015610c8a578082015181840152602081019050610c6f565b50505050905090810190601f168015610cb75780820380516001836020036101000a031916815260200191505b509250505060405180910390f35b610ccd611e60565b6040518082815260200191505060405180910390f35b60006060600060608060608060606000600160008b8152602001908152602001600020905080600101548160020182600301548360040184600501856006018660070187600801868054600181600116156101000203166002900480601f016020809104026020016040519081016040528092919081815260200182805460018160011615610100020316600290048015610dbf5780601f10610d9457610100808354040283529160200191610dbf565b820191906000526020600020905b815481529060010190602001808311610da257829003601f168201915b50505050509650848054600181600116156101000203166002900480601f016020809104026020016040519081016040528092919081815260200182805460018160011615610100020316600290048015610e5b5780601f10610e3057610100808354040283529160200191610e5b565b820191906000526020600020905b815481529060010190602001808311610e3e57829003601f168201915b50505050509450838054600181600116156101000203166002900480601f016020809104026020016040519081016040528092919081815260200182805460018160011615610100020316600290048015610ef75780601f10610ecc57610100808354040283529160200191610ef7565b820191906000526020600020905b815481529060010190602001808311610eda57829003601f168201915b50505050509350828054600181600116156101000203166002900480601f016020809104026020016040519081016040528092919081815260200182805460018160011615610100020316600290048015610f935780601f10610f6857610100808354040283529160200191610f93565b820191906000526020600020905b815481529060010190602001808311610f7657829003601f168201915b50505050509250818054600181600116156101000203166002900480601f01602080910402602001604051908101604052809291908181526020018280546001816001161561010002031660029004801561102f5780601f106110045761010080835404028352916020019161102f565b820191906000526020600020905b81548152906001019060200180831161101257829003601f168201915b50505050509150808054600181600116156101000203166002900480601f0160208091040260200160405190810160405280929190818152602001828054600181600116156101000203166002900480156110cb5780601f106110a0576101008083540402835291602001916110cb565b820191906000526020600020905b8154815290600101906020018083116110ae57829003601f168201915b505050505090509850985098509850985098509850985050919395975091939597565b6002600082815260200190815260200160002060009054906101000a900460ff1615611182576040517f08c379a000000000000000000000000000000000000000000000000000000000815260040180806020018281038252601d8152602001807f546865207265636f726420697320616c72656164792064656c6574656400000081525060200191505060405180910390fd5b60006001600083815260200190815260200160002090507f95a89879937db19c3bf7c97cd1fa46cd2ef3bd1be42de09ca42d9529cca6ef808160000154428360020184600301548560040186600501876006018860070189600801604051808a815260200189815260200180602001888152602001806020018060200180602001806020018060200187810387528e81815460018160011615610100020316600290048152602001915080546001816001161561010002031660029004801561128c5780601f106112615761010080835404028352916020019161128c565b820191906000526020600020905b81548152906001019060200180831161126f57829003601f168201915b505087810386528c81815460018160011615610100020316600290048152602001915080546001816001161561010002031660029004801561130f5780601f106112e45761010080835404028352916020019161130f565b820191906000526020600020905b8154815290600101906020018083116112f257829003601f168201915b505087810385528b8181546001816001161561010002031660029004815260200191508054600181600116156101000203166002900480156113925780601f1061136757610100808354040283529160200191611392565b820191906000526020600020905b81548152906001019060200180831161137557829003601f168201915b505087810384528a8181546001816001161561010002031660029004815260200191508054600181600116156101000203166002900480156114155780601f106113ea57610100808354040283529160200191611415565b820191906000526020600020905b8154815290600101906020018083116113f857829003601f168201915b50508781038352898181546001816001161561010002031660029004815260200191508054600181600116156101000203166002900480156114985780601f1061146d57610100808354040283529160200191611498565b820191906000526020600020905b81548152906001019060200180831161147b57829003601f168201915b505087810382528881815460018160011615610100020316600290048152602001915080546001816001161561010002031660029004801561151b5780601f106114f05761010080835404028352916020019161151b565b820191906000526020600020905b8154815290600101906020018083116114fe57829003601f168201915b50509f5050505050505050505050505050505060405180910390a160016002600084815260200190815260200160002060006101000a81548160ff0219169083151502179055505050565b600060016000838152602001908152602001600020600301549050919050565b600080815480929190600101919050555060405180610120016040528060005481526020014281526020018881526020018781526020018681526020018581526020018481526020018381526020018281525060016000805481526020019081526020016000206000820151816000015560208201518160010155604082015181600201908051906020019061161d929190611e66565b50606082015181600301556080820151816004019080519060200190611644929190611e66565b5060a0820151816005019080519060200190611661929190611e66565b5060c082015181600601908051906020019061167e929190611e66565b5060e082015181600701908051906020019061169b929190611e66565b506101008201518160080190805190602001906116b9929190611e66565b509050507fa2635998869e83ecab7fc136739f4e12017c9daca497867081e4732b34ae3cfe6000544289898989898989604051808a815260200189815260200180602001888152602001806020018060200180602001806020018060200187810387528e818151815260200191508051906020019080838360005b8381101561174f578082015181840152602081019050611734565b50505050905090810190601f16801561177c5780820380516001836020036101000a031916815260200191505b5087810386528c818151815260200191508051906020019080838360005b838110156117b557808201518184015260208101905061179a565b50505050905090810190601f1680156117e25780820380516001836020036101000a031916815260200191505b5087810385528b818151815260200191508051906020019080838360005b8381101561181b578082015181840152602081019050611800565b50505050905090810190601f1680156118485780820380516001836020036101000a031916815260200191505b5087810384528a818151815260200191508051906020019080838360005b83811015611881578082015181840152602081019050611866565b50505050905090810190601f1680156118ae5780820380516001836020036101000a031916815260200191505b50878103835289818151815260200191508051906020019080838360005b838110156118e75780820151818401526020810190506118cc565b50505050905090810190601f1680156119145780820380516001836020036101000a031916815260200191505b50878103825288818151815260200191508051906020019080838360005b8381101561194d578082015181840152602081019050611932565b50505050905090810190601f16801561197a5780820380516001836020036101000a031916815260200191505b509f5050505050505050505050505050505060405180910390a150505050505050565b600060016000838152602001908152602001600020600101549050919050565b6060600160008381526020019081526020016000206002018054600181600116156101000203166002900480601f016020809104026020016040519081016040528092919081815260200182805460018160011615610100020316600290048015611a695780601f10611a3e57610100808354040283529160200191611a69565b820191906000526020600020905b815481529060010190602001808311611a4c57829003601f168201915b50505050509050919050565b6060600160008381526020019081526020016000206007018054600181600116156101000203166002900480601f016020809104026020016040519081016040528092919081815260200182805460018160011615610100020316600290048015611b215780601f10611af657610100808354040283529160200191611b21565b820191906000526020600020905b815481529060010190602001808311611b0457829003601f168201915b50505050509050919050565b60026020528060005260406000206000915054906101000a900460ff1681565b6060600160008381526020019081526020016000206006018054600181600116156101000203166002900480601f016020809104026020016040519081016040528092919081815260200182805460018160011615610100020316600290048015611bf95780601f10611bce57610100808354040283529160200191611bf9565b820191906000526020600020905b815481529060010190602001808311611bdc57829003601f168201915b50505050509050919050565b60008054905090565b60006002600083815260200190815260200160002060009054906101000a900460ff169050919050565b6060600160008381526020019081526020016000206005018054600181600116156101000203166002900480601f016020809104026020016040519081016040528092919081815260200182805460018160011615610100020316600290048015611ce45780601f10611cb957610100808354040283529160200191611ce4565b820191906000526020600020905b815481529060010190602001808311611cc757829003601f168201915b50505050509050919050565b6060600160008381526020019081526020016000206004018054600181600116156101000203166002900480601f016020809104026020016040519081016040528092919081815260200182805460018160011615610100020316600290048015611d9c5780601f10611d7157610100808354040283529160200191611d9c565b820191906000526020600020905b815481529060010190602001808311611d7f57829003601f168201915b50505050509050919050565b6060600160008381526020019081526020016000206008018054600181600116156101000203166002900480601f016020809104026020016040519081016040528092919081815260200182805460018160011615610100020316600290048015611e545780601f10611e2957610100808354040283529160200191611e54565b820191906000526020600020905b815481529060010190602001808311611e3757829003601f168201915b50505050509050919050565b60005481565b828054600181600116156101000203166002900490600052602060002090601f016020900481019282601f10611ea757805160ff1916838001178555611ed5565b82800160010185558215611ed5579182015b82811115611ed4578251825591602001919060010190611eb9565b5b509050611ee29190611ee6565b5090565b5b80821115611eff576000816000905550600101611ee7565b509056fea26469706673582212208d6b077ffc1d9a6d7ca2aed5437aba450076e8b16f2c2743f30af3a6f989a30164736f6c63430007030033",
  "linkReferences": {},
  "deployedLinkReferences": {}
}